{
  "_format": "hh-sol-artifact-1",
  "contractName": "NftAuctionV2",
  "sourceName": "contracts/NftAuctionV2.sol",
  "abi": [
    {
      "inputs": [],
      "name": "InvalidInitialization",
      "type": "error"
    },
    {
      "inputs": [],
      "name": "NotInitializing",
      "type": "error"
    },
    {
      "anonymous": false,
      "inputs": [
        {
          "indexed": false,
          "internalType": "uint64",
          "name": "version",
          "type": "uint64"
        }
      ],
      "name": "Initialized",
      "type": "event"
    },
    {
      "inputs": [],
      "name": "admin",
      "outputs": [
        {
          "internalType": "address",
          "name": "",
          "type": "address"
        }
      ],
      "stateMutability": "view",
      "type": "function"
    },
    {
      "inputs": [
        {
          "internalType": "uint256",
          "name": "",
          "type": "uint256"
        }
      ],
      "name": "auctions",
      "outputs": [
        {
          "internalType": "address",
          "name": "seller",
          "type": "address"
        },
        {
          "internalType": "uint256",
          "name": "duration",
          "type": "uint256"
        },
        {
          "internalType": "uint256",
          "name": "startPrice",
          "type": "uint256"
        },
        {
          "internalType": "uint256",
          "name": "startTime",
          "type": "uint256"
        },
        {
          "internalType": "bool",
          "name": "ended",
          "type": "bool"
        },
        {
          "internalType": "address",
          "name": "highestBidder",
          "type": "address"
        },
        {
          "internalType": "uint256",
          "name": "highestBid",
          "type": "uint256"
        },
        {
          "internalType": "address",
          "name": "nftContract",
          "type": "address"
        },
        {
          "internalType": "uint256",
          "name": "tokenId",
          "type": "uint256"
        },
        {
          "internalType": "address",
          "name": "tokenAddress",
          "type": "address"
        }
      ],
      "stateMutability": "view",
      "type": "function"
    },
    {
      "inputs": [
        {
          "internalType": "uint256",
          "name": "_duration",
          "type": "uint256"
        },
        {
          "internalType": "uint256",
          "name": "_startPrice",
          "type": "uint256"
        },
        {
          "internalType": "address",
          "name": "_nftAddress",
          "type": "address"
        },
        {
          "internalType": "uint256",
          "name": "_tokenId",
          "type": "uint256"
        }
      ],
      "name": "createAuction",
      "outputs": [],
      "stateMutability": "nonpayable",
      "type": "function"
    },
    {
      "inputs": [
        {
          "internalType": "uint256",
          "name": "_auctionID",
          "type": "uint256"
        }
      ],
      "name": "endAuction",
      "outputs": [],
      "stateMutability": "nonpayable",
      "type": "function"
    },
    {
      "inputs": [
        {
          "internalType": "address",
          "name": "tokenAddress",
          "type": "address"
        }
      ],
      "name": "getChainlinkDataFeedLatestAnswer",
      "outputs": [
        {
          "internalType": "int256",
          "name": "",
          "type": "int256"
        }
      ],
      "stateMutability": "view",
      "type": "function"
    },
    {
      "inputs": [],
      "name": "initialize",
      "outputs": [],
      "stateMutability": "nonpayable",
      "type": "function"
    },
    {
      "inputs": [],
      "name": "nextAuctionId",
      "outputs": [
        {
          "internalType": "uint256",
          "name": "",
          "type": "uint256"
        }
      ],
      "stateMutability": "view",
      "type": "function"
    },
    {
      "inputs": [
        {
          "internalType": "address",
          "name": "operator",
          "type": "address"
        },
        {
          "internalType": "address",
          "name": "from",
          "type": "address"
        },
        {
          "internalType": "uint256",
          "name": "tokenId",
          "type": "uint256"
        },
        {
          "internalType": "bytes",
          "name": "data",
          "type": "bytes"
        }
      ],
      "name": "onERC721Received",
      "outputs": [
        {
          "internalType": "bytes4",
          "name": "",
          "type": "bytes4"
        }
      ],
      "stateMutability": "pure",
      "type": "function"
    },
    {
      "inputs": [
        {
          "internalType": "uint256",
          "name": "_auctionID",
          "type": "uint256"
        },
        {
          "internalType": "uint256",
          "name": "amount",
          "type": "uint256"
        },
        {
          "internalType": "address",
          "name": "_tokenAddress",
          "type": "address"
        }
      ],
      "name": "placeBid",
      "outputs": [],
      "stateMutability": "payable",
      "type": "function"
    },
    {
      "inputs": [
        {
          "internalType": "address",
          "name": "",
          "type": "address"
        }
      ],
      "name": "priceFeeds",
      "outputs": [
        {
          "internalType": "contract AggregatorV3Interface",
          "name": "",
          "type": "address"
        }
      ],
      "stateMutability": "view",
      "type": "function"
    },
    {
      "inputs": [
        {
          "internalType": "address",
          "name": "tokenAddress",
          "type": "address"
        },
        {
          "internalType": "address",
          "name": "_priceFeed",
          "type": "address"
        }
      ],
      "name": "setPriceFeed",
      "outputs": [],
      "stateMutability": "nonpayable",
      "type": "function"
    },
    {
      "inputs": [
        {
          "internalType": "contract AggregatorV3Interface",
          "name": "tokenAddress",
          "type": "address"
        }
      ],
      "name": "test111",
      "outputs": [
        {
          "internalType": "int256",
          "name": "",
          "type": "int256"
        }
      ],
      "stateMutability": "view",
      "type": "function"
    },
    {
      "inputs": [],
      "name": "testHello",
      "outputs": [
        {
          "internalType": "string",
          "name": "",
          "type": "string"
        }
      ],
      "stateMutability": "pure",
      "type": "function"
    }
  ],
  "bytecode": "0x6080604052348015600f57600080fd5b506124f88061001f6000396000f3fe6080604052600436106100c25760003560e01c8063ad6561ec1161007f578063c97c635311610059578063c97c635314610272578063e7078f921461029d578063f851a440146102da578063fc52848214610305576100c2565b8063ad6561ec14610204578063b1cb48ef14610220578063b9a2de3a14610249576100c2565b8063150b7a02146100c7578063571a26a014610104578063634ae0311461014a57806376e11286146101875780638129fc1c146101b05780639dcb511a146101c7575b600080fd5b3480156100d357600080fd5b506100ee60048036038101906100e991906118d7565b610330565b6040516100fb919061199a565b60405180910390f35b34801561011057600080fd5b5061012b600480360381019061012691906119b5565b610345565b6040516101419a99989796959493929190611a1b565b60405180910390f35b34801561015657600080fd5b50610171600480360381019061016c9190611af5565b610426565b60405161017e9190611b3b565b60405180910390f35b34801561019357600080fd5b506101ae60048036038101906101a99190611b56565b6104ad565b005b3480156101bc57600080fd5b506101c561052f565b005b3480156101d357600080fd5b506101ee60048036038101906101e99190611b96565b6106f5565b6040516101fb9190611c22565b60405180910390f35b61021e60048036038101906102199190611c3d565b610728565b005b34801561022c57600080fd5b5061024760048036038101906102429190611c90565b610dc9565b005b34801561025557600080fd5b50610270600480360381019061026b91906119b5565b611198565b005b34801561027e57600080fd5b50610287611344565b6040516102949190611d87565b60405180910390f35b3480156102a957600080fd5b506102c460048036038101906102bf9190611b96565b611381565b6040516102d19190611b3b565b60405180910390f35b3480156102e657600080fd5b506102ef6114a6565b6040516102fc9190611da9565b60405180910390f35b34801561031157600080fd5b5061031a6114cc565b6040516103279190611dc4565b60405180910390f35b600063150b7a0260e01b905095945050505050565b60006020528060005260406000206000915090508060000160009054906101000a900473ffffffffffffffffffffffffffffffffffffffff16908060010154908060020154908060030154908060040160009054906101000a900460ff16908060040160019054906101000a900473ffffffffffffffffffffffffffffffffffffffff16908060050154908060060160009054906101000a900473ffffffffffffffffffffffffffffffffffffffff16908060070154908060080160009054906101000a900473ffffffffffffffffffffffffffffffffffffffff1690508a565b60008082905060008173ffffffffffffffffffffffffffffffffffffffff1663feaf968c6040518163ffffffff1660e01b815260040160a060405180830381865afa158015610479573d6000803e3d6000fd5b505050506040513d601f19601f8201168201806040525081019061049d9190611e62565b5050509150508092505050919050565b80600360008473ffffffffffffffffffffffffffffffffffffffff1673ffffffffffffffffffffffffffffffffffffffff16815260200190815260200160002060006101000a81548173ffffffffffffffffffffffffffffffffffffffff021916908373ffffffffffffffffffffffffffffffffffffffff1602179055505050565b60006105396114d2565b905060008160000160089054906101000a900460ff1615905060008260000160009054906101000a900467ffffffffffffffff1690506000808267ffffffffffffffff161480156105875750825b9050600060018367ffffffffffffffff161480156105bc575060003073ffffffffffffffffffffffffffffffffffffffff163b145b9050811580156105ca575080155b15610601576040517ff92ee8a900000000000000000000000000000000000000000000000000000000815260040160405180910390fd5b60018560000160006101000a81548167ffffffffffffffff021916908367ffffffffffffffff16021790555083156106515760018560000160086101000a81548160ff0219169083151502179055505b33600260006101000a81548173ffffffffffffffffffffffffffffffffffffffff021916908373ffffffffffffffffffffffffffffffffffffffff16021790555083156106ee5760008560000160086101000a81548160ff0219169083151502179055507fc7f505b2f371ae2175ee4913f4499e1f2633a7b5936321eed1cdaeb6115181d260016040516106e59190611f2c565b60405180910390a15b5050505050565b60036020528060005260406000206000915054906101000a900473ffffffffffffffffffffffffffffffffffffffff1681565b600080600085815260200190815260200160002090508060040160009054906101000a900460ff1615801561076f5750428160010154826003015461076d9190611f76565b115b6107ae576040517f08c379a00000000000000000000000000000000000000000000000000000000081526004016107a590611ff6565b60405180910390fd5b60008073ffffffffffffffffffffffffffffffffffffffff168373ffffffffffffffffffffffffffffffffffffffff16146108c3576107ec83611381565b846107f79190612016565b90506108406040518060400160405280601881526020017f75736463206665656470726963652d2d2d2d2d2d2d2d2d3a000000000000000081525061083b85611381565b6114e6565b61087f6040518060400160405280601881526020017f757364632070617956616c7565202d2d2d2d2d2d2d2d2d3a0000000000000000815250826114e6565b6108be6040518060400160405280601881526020017f5f746f6b656e41646472657373202d2d2d2d2d2d2d2d2d3a000000000000000081525084611582565b6109a5565b3493506108d06000611381565b846108db9190612016565b90506109256040518060400160405280601781526020017f455448206665656470726963652d2d2d2d2d2d2d2d2d3a0000000000000000008152506109206000611381565b6114e6565b6109646040518060400160405280601881526020017f757364632070617956616c7565202d2d2d2d2d2d2d2d2d3a0000000000000000815250826114e6565b6109a46040518060400160405280601581526020017f61646472657373283029202d2d2d2d2d2d2d2d2d3a00000000000000000000008152506000611582565b5b60006109d48360080160009054906101000a900473ffffffffffffffffffffffffffffffffffffffff16611381565b83600201546109e39190612016565b90506000610a148460080160009054906101000a900473ffffffffffffffffffffffffffffffffffffffff16611381565b8460050154610a239190612016565b90506000731b44f3514812d835eb1bdb0acb33d3fa3351ee439050610a4781610426565b50610a866040518060400160405280601a81526020017f64617461466565642074657374202b2b2b2b2b2b2b2b2b2b2b3a00000000000081525061161e565b828410158015610a9557508184115b610ad4576040517f08c379a0000000000000000000000000000000000000000000000000000000008152600401610acb906120ca565b60405180910390fd5b600073ffffffffffffffffffffffffffffffffffffffff168673ffffffffffffffffffffffffffffffffffffffff1614610b8a578573ffffffffffffffffffffffffffffffffffffffff166323b872dd33308a6040518463ffffffff1660e01b8152600401610b45939291906120ea565b6020604051808303816000875af1158015610b64573d6000803e3d6000fd5b505050506040513d601f19601f82011682018060405250810190610b88919061214d565b505b600085600501541115610d3057600073ffffffffffffffffffffffffffffffffffffffff168560080160009054906101000a900473ffffffffffffffffffffffffffffffffffffffff1673ffffffffffffffffffffffffffffffffffffffff1603610c63578460040160019054906101000a900473ffffffffffffffffffffffffffffffffffffffff1673ffffffffffffffffffffffffffffffffffffffff166108fc86600501549081150290604051600060405180830381858888f19350505050158015610c5d573d6000803e3d6000fd5b50610d2f565b8460080160009054906101000a900473ffffffffffffffffffffffffffffffffffffffff1673ffffffffffffffffffffffffffffffffffffffff1663a9059cbb8660040160019054906101000a900473ffffffffffffffffffffffffffffffffffffffff1687600501546040518363ffffffff1660e01b8152600401610cea92919061217a565b6020604051808303816000875af1158015610d09573d6000803e3d6000fd5b505050506040513d601f19601f82011682018060405250810190610d2d919061214d565b505b5b858560080160006101000a81548173ffffffffffffffffffffffffffffffffffffffff021916908373ffffffffffffffffffffffffffffffffffffffff160217905550868560050181905550338560040160016101000a81548173ffffffffffffffffffffffffffffffffffffffff021916908373ffffffffffffffffffffffffffffffffffffffff1602179055505050505050505050565b600260009054906101000a900473ffffffffffffffffffffffffffffffffffffffff1673ffffffffffffffffffffffffffffffffffffffff163373ffffffffffffffffffffffffffffffffffffffff1614610e59576040517f08c379a0000000000000000000000000000000000000000000000000000000008152600401610e50906121ef565b60405180910390fd5b600a841015610e9d576040517f08c379a0000000000000000000000000000000000000000000000000000000008152600401610e9490612281565b60405180910390fd5b60008311610ee0576040517f08c379a0000000000000000000000000000000000000000000000000000000008152600401610ed790612313565b60405180910390fd5b8173ffffffffffffffffffffffffffffffffffffffff166342842e0e3330846040518463ffffffff1660e01b8152600401610f1d939291906120ea565b600060405180830381600087803b158015610f3757600080fd5b505af1158015610f4b573d6000803e3d6000fd5b505050506040518061014001604052803373ffffffffffffffffffffffffffffffffffffffff168152602001858152602001848152602001428152602001600015158152602001600073ffffffffffffffffffffffffffffffffffffffff168152602001600081526020018373ffffffffffffffffffffffffffffffffffffffff168152602001828152602001600073ffffffffffffffffffffffffffffffffffffffff16815250600080600154815260200190815260200160002060008201518160000160006101000a81548173ffffffffffffffffffffffffffffffffffffffff021916908373ffffffffffffffffffffffffffffffffffffffff16021790555060208201518160010155604082015181600201556060820151816003015560808201518160040160006101000a81548160ff02191690831515021790555060a08201518160040160016101000a81548173ffffffffffffffffffffffffffffffffffffffff021916908373ffffffffffffffffffffffffffffffffffffffff16021790555060c0820151816005015560e08201518160060160006101000a81548173ffffffffffffffffffffffffffffffffffffffff021916908373ffffffffffffffffffffffffffffffffffffffff16021790555061010082015181600701556101208201518160080160006101000a81548173ffffffffffffffffffffffffffffffffffffffff021916908373ffffffffffffffffffffffffffffffffffffffff1602179055509050506001600081548092919061118d90612333565b919050555050505050565b600080600083815260200190815260200160002090506111f76040518060400160405280600a81526020017f656e6441756374696f6e0000000000000000000000000000000000000000000081525082600301548360010154426116b7565b8060040160009054906101000a900460ff16158015611229575042816001015482600301546112269190611f76565b11155b611268576040517f08c379a000000000000000000000000000000000000000000000000000000000815260040161125f906123c7565b60405180910390fd5b8060060160009054906101000a900473ffffffffffffffffffffffffffffffffffffffff1673ffffffffffffffffffffffffffffffffffffffff166342842e0e308360040160019054906101000a900473ffffffffffffffffffffffffffffffffffffffff1684600701546040518463ffffffff1660e01b81526004016112f1939291906120ea565b600060405180830381600087803b15801561130b57600080fd5b505af115801561131f573d6000803e3d6000fd5b5050505060018160040160006101000a81548160ff0219169083151502179055505050565b60606040518060400160405280600d81526020017f68656c6c6f20776f726c64212100000000000000000000000000000000000000815250905090565b600080600360008473ffffffffffffffffffffffffffffffffffffffff1673ffffffffffffffffffffffffffffffffffffffff16815260200190815260200160002060009054906101000a900473ffffffffffffffffffffffffffffffffffffffff1690506114256040518060400160405280601c81526020017f7072696365466565645f41646472657373202d2d2d2d2d2d2d2d2d3a0000000081525084611582565b60008173ffffffffffffffffffffffffffffffffffffffff1663feaf968c6040518163ffffffff1660e01b815260040160a060405180830381865afa158015611472573d6000803e3d6000fd5b505050506040513d601f19601f820116820180604052508101906114969190611e62565b5050509150508092505050919050565b600260009054906101000a900473ffffffffffffffffffffffffffffffffffffffff1681565b60015481565b6000806114dd611759565b90508091505090565b61157e82826040516024016114fc9291906123e7565b6040516020818303038152906040527fb60e72cc000000000000000000000000000000000000000000000000000000007bffffffffffffffffffffffffffffffffffffffffffffffffffffffff19166020820180517bffffffffffffffffffffffffffffffffffffffffffffffffffffffff8381831617835250505050611784565b5050565b61161a8282604051602401611598929190612417565b6040516020818303038152906040527f319af333000000000000000000000000000000000000000000000000000000007bffffffffffffffffffffffffffffffffffffffffffffffffffffffff19166020820180517bffffffffffffffffffffffffffffffffffffffffffffffffffffffff8381831617835250505050611784565b5050565b6116b4816040516024016116329190611d87565b6040516020818303038152906040527f41304fac000000000000000000000000000000000000000000000000000000007bffffffffffffffffffffffffffffffffffffffffffffffffffffffff19166020820180517bffffffffffffffffffffffffffffffffffffffffffffffffffffffff8381831617835250505050611784565b50565b611753848484846040516024016116d19493929190612447565b6040516020818303038152906040527fa7a87853000000000000000000000000000000000000000000000000000000007bffffffffffffffffffffffffffffffffffffffffffffffffffffffff19166020820180517bffffffffffffffffffffffffffffffffffffffffffffffffffffffff8381831617835250505050611784565b50505050565b60007ff0c57e16840df040f15088dc2f81fe391c3923bec73e23a9662efc9c229c6a0060001b905090565b61179b8161179361179e6117bf565b63ffffffff16565b50565b60006a636f6e736f6c652e6c6f679050600080835160208501845afa505050565b6117ca819050919050565b6117d2612493565b565b600080fd5b600080fd5b600073ffffffffffffffffffffffffffffffffffffffff82169050919050565b6000611809826117de565b9050919050565b611819816117fe565b811461182457600080fd5b50565b60008135905061183681611810565b92915050565b6000819050919050565b61184f8161183c565b811461185a57600080fd5b50565b60008135905061186c81611846565b92915050565b600080fd5b600080fd5b600080fd5b60008083601f84011261189757611896611872565b5b8235905067ffffffffffffffff8111156118b4576118b3611877565b5b6020830191508360018202830111156118d0576118cf61187c565b5b9250929050565b6000806000806000608086880312156118f3576118f26117d4565b5b600061190188828901611827565b955050602061191288828901611827565b94505060406119238882890161185d565b935050606086013567ffffffffffffffff811115611944576119436117d9565b5b61195088828901611881565b92509250509295509295909350565b60007fffffffff0000000000000000000000000000000000000000000000000000000082169050919050565b6119948161195f565b82525050565b60006020820190506119af600083018461198b565b92915050565b6000602082840312156119cb576119ca6117d4565b5b60006119d98482850161185d565b91505092915050565b6119eb816117fe565b82525050565b6119fa8161183c565b82525050565b60008115159050919050565b611a1581611a00565b82525050565b600061014082019050611a31600083018d6119e2565b611a3e602083018c6119f1565b611a4b604083018b6119f1565b611a58606083018a6119f1565b611a656080830189611a0c565b611a7260a08301886119e2565b611a7f60c08301876119f1565b611a8c60e08301866119e2565b611a9a6101008301856119f1565b611aa86101208301846119e2565b9b9a5050505050505050505050565b6000611ac2826117fe565b9050919050565b611ad281611ab7565b8114611add57600080fd5b50565b600081359050611aef81611ac9565b92915050565b600060208284031215611b0b57611b0a6117d4565b5b6000611b1984828501611ae0565b91505092915050565b6000819050919050565b611b3581611b22565b82525050565b6000602082019050611b506000830184611b2c565b92915050565b60008060408385031215611b6d57611b6c6117d4565b5b6000611b7b85828601611827565b9250506020611b8c85828601611827565b9150509250929050565b600060208284031215611bac57611bab6117d4565b5b6000611bba84828501611827565b91505092915050565b6000819050919050565b6000611be8611be3611bde846117de565b611bc3565b6117de565b9050919050565b6000611bfa82611bcd565b9050919050565b6000611c0c82611bef565b9050919050565b611c1c81611c01565b82525050565b6000602082019050611c376000830184611c13565b92915050565b600080600060608486031215611c5657611c556117d4565b5b6000611c648682870161185d565b9350506020611c758682870161185d565b9250506040611c8686828701611827565b9150509250925092565b60008060008060808587031215611caa57611ca96117d4565b5b6000611cb88782880161185d565b9450506020611cc98782880161185d565b9350506040611cda87828801611827565b9250506060611ceb8782880161185d565b91505092959194509250565b600081519050919050565b600082825260208201905092915050565b60005b83811015611d31578082015181840152602081019050611d16565b60008484015250505050565b6000601f19601f8301169050919050565b6000611d5982611cf7565b611d638185611d02565b9350611d73818560208601611d13565b611d7c81611d3d565b840191505092915050565b60006020820190508181036000830152611da18184611d4e565b905092915050565b6000602082019050611dbe60008301846119e2565b92915050565b6000602082019050611dd960008301846119f1565b92915050565b600069ffffffffffffffffffff82169050919050565b611dfe81611ddf565b8114611e0957600080fd5b50565b600081519050611e1b81611df5565b92915050565b611e2a81611b22565b8114611e3557600080fd5b50565b600081519050611e4781611e21565b92915050565b600081519050611e5c81611846565b92915050565b600080600080600060a08688031215611e7e57611e7d6117d4565b5b6000611e8c88828901611e0c565b9550506020611e9d88828901611e38565b9450506040611eae88828901611e4d565b9350506060611ebf88828901611e4d565b9250506080611ed088828901611e0c565b9150509295509295909350565b6000819050919050565b600067ffffffffffffffff82169050919050565b6000611f16611f11611f0c84611edd565b611bc3565b611ee7565b9050919050565b611f2681611efb565b82525050565b6000602082019050611f416000830184611f1d565b92915050565b7f4e487b7100000000000000000000000000000000000000000000000000000000600052601160045260246000fd5b6000611f818261183c565b9150611f8c8361183c565b9250828201905080821115611fa457611fa3611f47565b5b92915050565b7f41756374696f6e2068617320656e646564000000000000000000000000000000600082015250565b6000611fe0601183611d02565b9150611feb82611faa565b602082019050919050565b6000602082019050818103600083015261200f81611fd3565b9050919050565b60006120218261183c565b915061202c8361183c565b925082820261203a8161183c565b9150828204841483151761205157612050611f47565b5b5092915050565b7f426964206d75737420626520686967686572207468616e20746865206375727260008201527f656e742068696768657374206269640000000000000000000000000000000000602082015250565b60006120b4602f83611d02565b91506120bf82612058565b604082019050919050565b600060208201905081810360008301526120e3816120a7565b9050919050565b60006060820190506120ff60008301866119e2565b61210c60208301856119e2565b61211960408301846119f1565b949350505050565b61212a81611a00565b811461213557600080fd5b50565b60008151905061214781612121565b92915050565b600060208284031215612163576121626117d4565b5b600061217184828501612138565b91505092915050565b600060408201905061218f60008301856119e2565b61219c60208301846119f1565b9392505050565b7f4f6e6c792061646d696e2063616e206372656174652061756374696f6e730000600082015250565b60006121d9601e83611d02565b91506121e4826121a3565b602082019050919050565b60006020820190508181036000830152612208816121cc565b9050919050565b7f4475726174696f6e206d7573742062652067726561746572207468616e20313060008201527f7300000000000000000000000000000000000000000000000000000000000000602082015250565b600061226b602183611d02565b91506122768261220f565b604082019050919050565b6000602082019050818103600083015261229a8161225e565b9050919050565b7f5374617274207072696365206d7573742062652067726561746572207468616e60008201527f2030000000000000000000000000000000000000000000000000000000000000602082015250565b60006122fd602283611d02565b9150612308826122a1565b604082019050919050565b6000602082019050818103600083015261232c816122f0565b9050919050565b600061233e8261183c565b91507fffffffffffffffffffffffffffffffffffffffffffffffffffffffffffffffff82036123705761236f611f47565b5b600182019050919050565b7f41756374696f6e20686173206e6f7420656e6465640000000000000000000000600082015250565b60006123b1601583611d02565b91506123bc8261237b565b602082019050919050565b600060208201905081810360008301526123e0816123a4565b9050919050565b600060408201905081810360008301526124018185611d4e565b905061241060208301846119f1565b9392505050565b600060408201905081810360008301526124318185611d4e565b905061244060208301846119e2565b9392505050565b600060808201905081810360008301526124618187611d4e565b905061247060208301866119f1565b61247d60408301856119f1565b61248a60608301846119f1565b95945050505050565b7f4e487b7100000000000000000000000000000000000000000000000000000000600052605160045260246000fdfea2646970667358221220742c8066ea166f788431c7c26e7eb9afce328e5f0995353464a9ad0a1dd3c79a64736f6c634300081c0033",
  "linkReferences": {},
  "deployedLinkReferences": {}
}