{
  "_format": "hh-sol-artifact-1",
  "contractName": "NftAuctionFactory",
  "sourceName": "contracts/NftAuctionFactory.sol",
  "abi": [
    {
      "anonymous": false,
      "inputs": [
        {
          "indexed": true,
          "internalType": "address",
          "name": "auctionAddress",
          "type": "address"
        },
        {
          "indexed": false,
          "internalType": "uint256",
          "name": "tokenId",
          "type": "uint256"
        }
      ],
      "name": "AuctionCreated",
      "type": "event"
    },
    {
      "inputs": [
        {
          "internalType": "uint256",
          "name": "tokenId",
          "type": "uint256"
        }
      ],
      "name": "auctionMap",
      "outputs": [
        {
          "internalType": "contract NftAuction",
          "name": "",
          "type": "address"
        }
      ],
      "stateMutability": "view",
      "type": "function"
    },
    {
      "inputs": [
        {
          "internalType": "uint256",
          "name": "",
          "type": "uint256"
        }
      ],
      "name": "auctions",
      "outputs": [
        {
          "internalType": "address",
          "name": "",
          "type": "address"
        }
      ],
      "stateMutability": "view",
      "type": "function"
    },
    {
      "inputs": [
        {
          "internalType": "uint256",
          "name": "duration",
          "type": "uint256"
        },
        {
          "internalType": "uint256",
          "name": "startPrice",
          "type": "uint256"
        },
        {
          "internalType": "address",
          "name": "nftContractAddress",
          "type": "address"
        },
        {
          "internalType": "uint256",
          "name": "tokenId",
          "type": "uint256"
        }
      ],
      "name": "createAuction",
      "outputs": [
        {
          "internalType": "address",
          "name": "",
          "type": "address"
        }
      ],
      "stateMutability": "nonpayable",
      "type": "function"
    },
    {
      "inputs": [
        {
          "internalType": "uint256",
          "name": "tokenId",
          "type": "uint256"
        }
      ],
      "name": "getAuction",
      "outputs": [
        {
          "internalType": "address",
          "name": "",
          "type": "address"
        }
      ],
      "stateMutability": "view",
      "type": "function"
    },
    {
      "inputs": [],
      "name": "getAuctions",
      "outputs": [
        {
          "internalType": "address[]",
          "name": "",
          "type": "address[]"
        }
      ],
      "stateMutability": "view",
      "type": "function"
    }
  ],
  "bytecode": "0x6080604052348015600f57600080fd5b50612cc38061001f6000396000f3fe608060405234801561001057600080fd5b50600436106100575760003560e01c8063571a26a01461005c57806378bd79351461008c578063b1cb48ef146100bc578063d7c06919146100ec578063d92623a31461010a575b600080fd5b610076600480360381019061007191906104ad565b61013a565b604051610083919061051b565b60405180910390f35b6100a660048036038101906100a191906104ad565b610179565b6040516100b3919061051b565b60405180910390f35b6100d660048036038101906100d19190610562565b610207565b6040516100e3919061051b565b60405180910390f35b6100f46103a4565b6040516101019190610687565b60405180910390f35b610124600480360381019061011f91906104ad565b610432565b6040516101319190610708565b60405180910390f35b6000818154811061014a57600080fd5b906000526020600020016000915054906101000a900473ffffffffffffffffffffffffffffffffffffffff1681565b6000808054905082106101c1576040517f08c379a00000000000000000000000000000000000000000000000000000000081526004016101b890610780565b60405180910390fd5b600082815481106101d5576101d46107a0565b5b9060005260206000200160009054906101000a900473ffffffffffffffffffffffffffffffffffffffff169050919050565b60008060405161021690610465565b604051809103906000f080158015610232573d6000803e3d6000fd5b5090508073ffffffffffffffffffffffffffffffffffffffff16638129fc1c6040518163ffffffff1660e01b8152600401600060405180830381600087803b15801561027d57600080fd5b505af1158015610291573d6000803e3d6000fd5b505050506000819080600181540180825580915050600190039060005260206000200160009091909190916101000a81548173ffffffffffffffffffffffffffffffffffffffff021916908373ffffffffffffffffffffffffffffffffffffffff160217905550806001600085815260200190815260200160002060006101000a81548173ffffffffffffffffffffffffffffffffffffffff021916908373ffffffffffffffffffffffffffffffffffffffff1602179055508073ffffffffffffffffffffffffffffffffffffffff167f3249a06bd478adf780bb7930214ad005e9cfa517d63221c0b77f27199d1a58b38460405161039091906107de565b60405180910390a280915050949350505050565b6060600080548060200260200160405190810160405280929190818152602001828054801561042857602002820191906000526020600020905b8160009054906101000a900473ffffffffffffffffffffffffffffffffffffffff1673ffffffffffffffffffffffffffffffffffffffff16815260200190600101908083116103de575b5050505050905090565b60016020528060005260406000206000915054906101000a900473ffffffffffffffffffffffffffffffffffffffff1681565b612494806107fa83390190565b600080fd5b6000819050919050565b61048a81610477565b811461049557600080fd5b50565b6000813590506104a781610481565b92915050565b6000602082840312156104c3576104c2610472565b5b60006104d184828501610498565b91505092915050565b600073ffffffffffffffffffffffffffffffffffffffff82169050919050565b6000610505826104da565b9050919050565b610515816104fa565b82525050565b6000602082019050610530600083018461050c565b92915050565b61053f816104fa565b811461054a57600080fd5b50565b60008135905061055c81610536565b92915050565b6000806000806080858703121561057c5761057b610472565b5b600061058a87828801610498565b945050602061059b87828801610498565b93505060406105ac8782880161054d565b92505060606105bd87828801610498565b91505092959194509250565b600081519050919050565b600082825260208201905092915050565b6000819050602082019050919050565b6105fe816104fa565b82525050565b600061061083836105f5565b60208301905092915050565b6000602082019050919050565b6000610634826105c9565b61063e81856105d4565b9350610649836105e5565b8060005b8381101561067a5781516106618882610604565b975061066c8361061c565b92505060018101905061064d565b5085935050505092915050565b600060208201905081810360008301526106a18184610629565b905092915050565b6000819050919050565b60006106ce6106c96106c4846104da565b6106a9565b6104da565b9050919050565b60006106e0826106b3565b9050919050565b60006106f2826106d5565b9050919050565b610702816106e7565b82525050565b600060208201905061071d60008301846106f9565b92915050565b600082825260208201905092915050565b7f746f6b656e4964206f7574206f6620626f756e64730000000000000000000000600082015250565b600061076a601583610723565b915061077582610734565b602082019050919050565b600060208201905081810360008301526107998161075d565b9050919050565b7f4e487b7100000000000000000000000000000000000000000000000000000000600052603260045260246000fd5b6107d881610477565b82525050565b60006020820190506107f360008301846107cf565b9291505056fe6080604052348015600f57600080fd5b506124758061001f6000396000f3fe6080604052600436106100a75760003560e01c8063ad6561ec11610064578063ad6561ec146101e9578063b1cb48ef14610205578063b9a2de3a1461022e578063e7078f9214610257578063f851a44014610294578063fc528482146102bf576100a7565b8063150b7a02146100ac578063571a26a0146100e9578063634ae0311461012f57806376e112861461016c5780638129fc1c146101955780639dcb511a146101ac575b600080fd5b3480156100b857600080fd5b506100d360048036038101906100ce9190611854565b6102ea565b6040516100e09190611917565b60405180910390f35b3480156100f557600080fd5b50610110600480360381019061010b9190611932565b6102ff565b6040516101269a99989796959493929190611998565b60405180910390f35b34801561013b57600080fd5b5061015660048036038101906101519190611a72565b6103e0565b6040516101639190611ab8565b60405180910390f35b34801561017857600080fd5b50610193600480360381019061018e9190611ad3565b610467565b005b3480156101a157600080fd5b506101aa6104e9565b005b3480156101b857600080fd5b506101d360048036038101906101ce9190611b13565b6106af565b6040516101e09190611b9f565b60405180910390f35b61020360048036038101906101fe9190611bba565b6106e2565b005b34801561021157600080fd5b5061022c60048036038101906102279190611c0d565b610d83565b005b34801561023a57600080fd5b5061025560048036038101906102509190611932565b611152565b005b34801561026357600080fd5b5061027e60048036038101906102799190611b13565b6112fe565b60405161028b9190611ab8565b60405180910390f35b3480156102a057600080fd5b506102a9611423565b6040516102b69190611c74565b60405180910390f35b3480156102cb57600080fd5b506102d4611449565b6040516102e19190611c8f565b60405180910390f35b600063150b7a0260e01b905095945050505050565b60006020528060005260406000206000915090508060000160009054906101000a900473ffffffffffffffffffffffffffffffffffffffff16908060010154908060020154908060030154908060040160009054906101000a900460ff16908060040160019054906101000a900473ffffffffffffffffffffffffffffffffffffffff16908060050154908060060160009054906101000a900473ffffffffffffffffffffffffffffffffffffffff16908060070154908060080160009054906101000a900473ffffffffffffffffffffffffffffffffffffffff1690508a565b60008082905060008173ffffffffffffffffffffffffffffffffffffffff1663feaf968c6040518163ffffffff1660e01b815260040160a060405180830381865afa158015610433573d6000803e3d6000fd5b505050506040513d601f19601f820116820180604052508101906104579190611d2d565b5050509150508092505050919050565b80600360008473ffffffffffffffffffffffffffffffffffffffff1673ffffffffffffffffffffffffffffffffffffffff16815260200190815260200160002060006101000a81548173ffffffffffffffffffffffffffffffffffffffff021916908373ffffffffffffffffffffffffffffffffffffffff1602179055505050565b60006104f361144f565b905060008160000160089054906101000a900460ff1615905060008260000160009054906101000a900467ffffffffffffffff1690506000808267ffffffffffffffff161480156105415750825b9050600060018367ffffffffffffffff16148015610576575060003073ffffffffffffffffffffffffffffffffffffffff163b145b905081158015610584575080155b156105bb576040517ff92ee8a900000000000000000000000000000000000000000000000000000000815260040160405180910390fd5b60018560000160006101000a81548167ffffffffffffffff021916908367ffffffffffffffff160217905550831561060b5760018560000160086101000a81548160ff0219169083151502179055505b33600260006101000a81548173ffffffffffffffffffffffffffffffffffffffff021916908373ffffffffffffffffffffffffffffffffffffffff16021790555083156106a85760008560000160086101000a81548160ff0219169083151502179055507fc7f505b2f371ae2175ee4913f4499e1f2633a7b5936321eed1cdaeb6115181d2600160405161069f9190611df7565b60405180910390a15b5050505050565b60036020528060005260406000206000915054906101000a900473ffffffffffffffffffffffffffffffffffffffff1681565b600080600085815260200190815260200160002090508060040160009054906101000a900460ff16158015610729575042816001015482600301546107279190611e41565b115b610768576040517f08c379a000000000000000000000000000000000000000000000000000000000815260040161075f90611ed2565b60405180910390fd5b60008073ffffffffffffffffffffffffffffffffffffffff168373ffffffffffffffffffffffffffffffffffffffff161461087d576107a6836112fe565b846107b19190611ef2565b90506107fa6040518060400160405280601881526020017f75736463206665656470726963652d2d2d2d2d2d2d2d2d3a00000000000000008152506107f5856112fe565b611463565b6108396040518060400160405280601881526020017f757364632070617956616c7565202d2d2d2d2d2d2d2d2d3a000000000000000081525082611463565b6108786040518060400160405280601881526020017f5f746f6b656e41646472657373202d2d2d2d2d2d2d2d2d3a0000000000000000815250846114ff565b61095f565b34935061088a60006112fe565b846108959190611ef2565b90506108df6040518060400160405280601781526020017f455448206665656470726963652d2d2d2d2d2d2d2d2d3a0000000000000000008152506108da60006112fe565b611463565b61091e6040518060400160405280601881526020017f757364632070617956616c7565202d2d2d2d2d2d2d2d2d3a000000000000000081525082611463565b61095e6040518060400160405280601581526020017f61646472657373283029202d2d2d2d2d2d2d2d2d3a000000000000000000000081525060006114ff565b5b600061098e8360080160009054906101000a900473ffffffffffffffffffffffffffffffffffffffff166112fe565b836002015461099d9190611ef2565b905060006109ce8460080160009054906101000a900473ffffffffffffffffffffffffffffffffffffffff166112fe565b84600501546109dd9190611ef2565b90506000731b44f3514812d835eb1bdb0acb33d3fa3351ee439050610a01816103e0565b50610a406040518060400160405280601a81526020017f64617461466565642074657374202b2b2b2b2b2b2b2b2b2b2b3a00000000000081525061159b565b828410158015610a4f57508184115b610a8e576040517f08c379a0000000000000000000000000000000000000000000000000000000008152600401610a8590611fa6565b60405180910390fd5b600073ffffffffffffffffffffffffffffffffffffffff168673ffffffffffffffffffffffffffffffffffffffff1614610b44578573ffffffffffffffffffffffffffffffffffffffff166323b872dd33308a6040518463ffffffff1660e01b8152600401610aff93929190611fc6565b6020604051808303816000875af1158015610b1e573d6000803e3d6000fd5b505050506040513d601f19601f82011682018060405250810190610b429190612029565b505b600085600501541115610cea57600073ffffffffffffffffffffffffffffffffffffffff168560080160009054906101000a900473ffffffffffffffffffffffffffffffffffffffff1673ffffffffffffffffffffffffffffffffffffffff1603610c1d578460040160019054906101000a900473ffffffffffffffffffffffffffffffffffffffff1673ffffffffffffffffffffffffffffffffffffffff166108fc86600501549081150290604051600060405180830381858888f19350505050158015610c17573d6000803e3d6000fd5b50610ce9565b8460080160009054906101000a900473ffffffffffffffffffffffffffffffffffffffff1673ffffffffffffffffffffffffffffffffffffffff1663a9059cbb8660040160019054906101000a900473ffffffffffffffffffffffffffffffffffffffff1687600501546040518363ffffffff1660e01b8152600401610ca4929190612056565b6020604051808303816000875af1158015610cc3573d6000803e3d6000fd5b505050506040513d601f19601f82011682018060405250810190610ce79190612029565b505b5b858560080160006101000a81548173ffffffffffffffffffffffffffffffffffffffff021916908373ffffffffffffffffffffffffffffffffffffffff160217905550868560050181905550338560040160016101000a81548173ffffffffffffffffffffffffffffffffffffffff021916908373ffffffffffffffffffffffffffffffffffffffff1602179055505050505050505050565b600260009054906101000a900473ffffffffffffffffffffffffffffffffffffffff1673ffffffffffffffffffffffffffffffffffffffff163373ffffffffffffffffffffffffffffffffffffffff1614610e13576040517f08c379a0000000000000000000000000000000000000000000000000000000008152600401610e0a906120cb565b60405180910390fd5b600a841015610e57576040517f08c379a0000000000000000000000000000000000000000000000000000000008152600401610e4e9061215d565b60405180910390fd5b60008311610e9a576040517f08c379a0000000000000000000000000000000000000000000000000000000008152600401610e91906121ef565b60405180910390fd5b8173ffffffffffffffffffffffffffffffffffffffff166342842e0e3330846040518463ffffffff1660e01b8152600401610ed793929190611fc6565b600060405180830381600087803b158015610ef157600080fd5b505af1158015610f05573d6000803e3d6000fd5b505050506040518061014001604052803373ffffffffffffffffffffffffffffffffffffffff168152602001858152602001848152602001428152602001600015158152602001600073ffffffffffffffffffffffffffffffffffffffff168152602001600081526020018373ffffffffffffffffffffffffffffffffffffffff168152602001828152602001600073ffffffffffffffffffffffffffffffffffffffff16815250600080600154815260200190815260200160002060008201518160000160006101000a81548173ffffffffffffffffffffffffffffffffffffffff021916908373ffffffffffffffffffffffffffffffffffffffff16021790555060208201518160010155604082015181600201556060820151816003015560808201518160040160006101000a81548160ff02191690831515021790555060a08201518160040160016101000a81548173ffffffffffffffffffffffffffffffffffffffff021916908373ffffffffffffffffffffffffffffffffffffffff16021790555060c0820151816005015560e08201518160060160006101000a81548173ffffffffffffffffffffffffffffffffffffffff021916908373ffffffffffffffffffffffffffffffffffffffff16021790555061010082015181600701556101208201518160080160006101000a81548173ffffffffffffffffffffffffffffffffffffffff021916908373ffffffffffffffffffffffffffffffffffffffff160217905550905050600160008154809291906111479061220f565b919050555050505050565b600080600083815260200190815260200160002090506111b16040518060400160405280600a81526020017f656e6441756374696f6e000000000000000000000000000000000000000000008152508260030154836001015442611634565b8060040160009054906101000a900460ff161580156111e3575042816001015482600301546111e09190611e41565b11155b611222576040517f08c379a0000000000000000000000000000000000000000000000000000000008152600401611219906122a3565b60405180910390fd5b8060060160009054906101000a900473ffffffffffffffffffffffffffffffffffffffff1673ffffffffffffffffffffffffffffffffffffffff166342842e0e308360040160019054906101000a900473ffffffffffffffffffffffffffffffffffffffff1684600701546040518463ffffffff1660e01b81526004016112ab93929190611fc6565b600060405180830381600087803b1580156112c557600080fd5b505af11580156112d9573d6000803e3d6000fd5b5050505060018160040160006101000a81548160ff0219169083151502179055505050565b600080600360008473ffffffffffffffffffffffffffffffffffffffff1673ffffffffffffffffffffffffffffffffffffffff16815260200190815260200160002060009054906101000a900473ffffffffffffffffffffffffffffffffffffffff1690506113a26040518060400160405280601c81526020017f7072696365466565645f41646472657373202d2d2d2d2d2d2d2d2d3a00000000815250846114ff565b60008173ffffffffffffffffffffffffffffffffffffffff1663feaf968c6040518163ffffffff1660e01b815260040160a060405180830381865afa1580156113ef573d6000803e3d6000fd5b505050506040513d601f19601f820116820180604052508101906114139190611d2d565b5050509150508092505050919050565b600260009054906101000a900473ffffffffffffffffffffffffffffffffffffffff1681565b60015481565b60008061145a6116d6565b90508091505090565b6114fb8282604051602401611479929190612342565b6040516020818303038152906040527fb60e72cc000000000000000000000000000000000000000000000000000000007bffffffffffffffffffffffffffffffffffffffffffffffffffffffff19166020820180517bffffffffffffffffffffffffffffffffffffffffffffffffffffffff8381831617835250505050611701565b5050565b6115978282604051602401611515929190612372565b6040516020818303038152906040527f319af333000000000000000000000000000000000000000000000000000000007bffffffffffffffffffffffffffffffffffffffffffffffffffffffff19166020820180517bffffffffffffffffffffffffffffffffffffffffffffffffffffffff8381831617835250505050611701565b5050565b611631816040516024016115af91906123a2565b6040516020818303038152906040527f41304fac000000000000000000000000000000000000000000000000000000007bffffffffffffffffffffffffffffffffffffffffffffffffffffffff19166020820180517bffffffffffffffffffffffffffffffffffffffffffffffffffffffff8381831617835250505050611701565b50565b6116d08484848460405160240161164e94939291906123c4565b6040516020818303038152906040527fa7a87853000000000000000000000000000000000000000000000000000000007bffffffffffffffffffffffffffffffffffffffffffffffffffffffff19166020820180517bffffffffffffffffffffffffffffffffffffffffffffffffffffffff8381831617835250505050611701565b50505050565b60007ff0c57e16840df040f15088dc2f81fe391c3923bec73e23a9662efc9c229c6a0060001b905090565b6117188161171061171b61173c565b63ffffffff16565b50565b60006a636f6e736f6c652e6c6f679050600080835160208501845afa505050565b611747819050919050565b61174f612410565b565b600080fd5b600080fd5b600073ffffffffffffffffffffffffffffffffffffffff82169050919050565b60006117868261175b565b9050919050565b6117968161177b565b81146117a157600080fd5b50565b6000813590506117b38161178d565b92915050565b6000819050919050565b6117cc816117b9565b81146117d757600080fd5b50565b6000813590506117e9816117c3565b92915050565b600080fd5b600080fd5b600080fd5b60008083601f840112611814576118136117ef565b5b8235905067ffffffffffffffff811115611831576118306117f4565b5b60208301915083600182028301111561184d5761184c6117f9565b5b9250929050565b6000806000806000608086880312156118705761186f611751565b5b600061187e888289016117a4565b955050602061188f888289016117a4565b94505060406118a0888289016117da565b935050606086013567ffffffffffffffff8111156118c1576118c0611756565b5b6118cd888289016117fe565b92509250509295509295909350565b60007fffffffff0000000000000000000000000000000000000000000000000000000082169050919050565b611911816118dc565b82525050565b600060208201905061192c6000830184611908565b92915050565b60006020828403121561194857611947611751565b5b6000611956848285016117da565b91505092915050565b6119688161177b565b82525050565b611977816117b9565b82525050565b60008115159050919050565b6119928161197d565b82525050565b6000610140820190506119ae600083018d61195f565b6119bb602083018c61196e565b6119c8604083018b61196e565b6119d5606083018a61196e565b6119e26080830189611989565b6119ef60a083018861195f565b6119fc60c083018761196e565b611a0960e083018661195f565b611a1761010083018561196e565b611a2561012083018461195f565b9b9a5050505050505050505050565b6000611a3f8261177b565b9050919050565b611a4f81611a34565b8114611a5a57600080fd5b50565b600081359050611a6c81611a46565b92915050565b600060208284031215611a8857611a87611751565b5b6000611a9684828501611a5d565b91505092915050565b6000819050919050565b611ab281611a9f565b82525050565b6000602082019050611acd6000830184611aa9565b92915050565b60008060408385031215611aea57611ae9611751565b5b6000611af8858286016117a4565b9250506020611b09858286016117a4565b9150509250929050565b600060208284031215611b2957611b28611751565b5b6000611b37848285016117a4565b91505092915050565b6000819050919050565b6000611b65611b60611b5b8461175b565b611b40565b61175b565b9050919050565b6000611b7782611b4a565b9050919050565b6000611b8982611b6c565b9050919050565b611b9981611b7e565b82525050565b6000602082019050611bb46000830184611b90565b92915050565b600080600060608486031215611bd357611bd2611751565b5b6000611be1868287016117da565b9350506020611bf2868287016117da565b9250506040611c03868287016117a4565b9150509250925092565b60008060008060808587031215611c2757611c26611751565b5b6000611c35878288016117da565b9450506020611c46878288016117da565b9350506040611c57878288016117a4565b9250506060611c68878288016117da565b91505092959194509250565b6000602082019050611c89600083018461195f565b92915050565b6000602082019050611ca4600083018461196e565b92915050565b600069ffffffffffffffffffff82169050919050565b611cc981611caa565b8114611cd457600080fd5b50565b600081519050611ce681611cc0565b92915050565b611cf581611a9f565b8114611d0057600080fd5b50565b600081519050611d1281611cec565b92915050565b600081519050611d27816117c3565b92915050565b600080600080600060a08688031215611d4957611d48611751565b5b6000611d5788828901611cd7565b9550506020611d6888828901611d03565b9450506040611d7988828901611d18565b9350506060611d8a88828901611d18565b9250506080611d9b88828901611cd7565b9150509295509295909350565b6000819050919050565b600067ffffffffffffffff82169050919050565b6000611de1611ddc611dd784611da8565b611b40565b611db2565b9050919050565b611df181611dc6565b82525050565b6000602082019050611e0c6000830184611de8565b92915050565b7f4e487b7100000000000000000000000000000000000000000000000000000000600052601160045260246000fd5b6000611e4c826117b9565b9150611e57836117b9565b9250828201905080821115611e6f57611e6e611e12565b5b92915050565b600082825260208201905092915050565b7f41756374696f6e2068617320656e646564000000000000000000000000000000600082015250565b6000611ebc601183611e75565b9150611ec782611e86565b602082019050919050565b60006020820190508181036000830152611eeb81611eaf565b9050919050565b6000611efd826117b9565b9150611f08836117b9565b9250828202611f16816117b9565b91508282048414831517611f2d57611f2c611e12565b5b5092915050565b7f426964206d75737420626520686967686572207468616e20746865206375727260008201527f656e742068696768657374206269640000000000000000000000000000000000602082015250565b6000611f90602f83611e75565b9150611f9b82611f34565b604082019050919050565b60006020820190508181036000830152611fbf81611f83565b9050919050565b6000606082019050611fdb600083018661195f565b611fe8602083018561195f565b611ff5604083018461196e565b949350505050565b6120068161197d565b811461201157600080fd5b50565b60008151905061202381611ffd565b92915050565b60006020828403121561203f5761203e611751565b5b600061204d84828501612014565b91505092915050565b600060408201905061206b600083018561195f565b612078602083018461196e565b9392505050565b7f4f6e6c792061646d696e2063616e206372656174652061756374696f6e730000600082015250565b60006120b5601e83611e75565b91506120c08261207f565b602082019050919050565b600060208201905081810360008301526120e4816120a8565b9050919050565b7f4475726174696f6e206d7573742062652067726561746572207468616e20313060008201527f7300000000000000000000000000000000000000000000000000000000000000602082015250565b6000612147602183611e75565b9150612152826120eb565b604082019050919050565b600060208201905081810360008301526121768161213a565b9050919050565b7f5374617274207072696365206d7573742062652067726561746572207468616e60008201527f2030000000000000000000000000000000000000000000000000000000000000602082015250565b60006121d9602283611e75565b91506121e48261217d565b604082019050919050565b60006020820190508181036000830152612208816121cc565b9050919050565b600061221a826117b9565b91507fffffffffffffffffffffffffffffffffffffffffffffffffffffffffffffffff820361224c5761224b611e12565b5b600182019050919050565b7f41756374696f6e20686173206e6f7420656e6465640000000000000000000000600082015250565b600061228d601583611e75565b915061229882612257565b602082019050919050565b600060208201905081810360008301526122bc81612280565b9050919050565b600081519050919050565b60005b838110156122ec5780820151818401526020810190506122d1565b60008484015250505050565b6000601f19601f8301169050919050565b6000612314826122c3565b61231e8185611e75565b935061232e8185602086016122ce565b612337816122f8565b840191505092915050565b6000604082019050818103600083015261235c8185612309565b905061236b602083018461196e565b9392505050565b6000604082019050818103600083015261238c8185612309565b905061239b602083018461195f565b9392505050565b600060208201905081810360008301526123bc8184612309565b905092915050565b600060808201905081810360008301526123de8187612309565b90506123ed602083018661196e565b6123fa604083018561196e565b612407606083018461196e565b95945050505050565b7f4e487b7100000000000000000000000000000000000000000000000000000000600052605160045260246000fdfea26469706673582212202e52f439460f9dea4fb9baefea3e93fa0db3267d3d75338cee7dacdf1a17bf1264736f6c634300081c0033a2646970667358221220729f8171b6ea9692597605bd72ccf8b6d52a3e0ce364f9005ec60d785aacea7d64736f6c634300081c0033",
  "linkReferences": {},
  "deployedLinkReferences": {}
}