{
  "_format": "hh-sol-artifact-1",
  "contractName": "AggreagatorV3",
  "sourceName": "contracts/test/AggregatorV3.sol",
  "abi": [
    {
      "inputs": [
        {
          "internalType": "int256",
          "name": "_answer",
          "type": "int256"
        }
      ],
      "stateMutability": "nonpayable",
      "type": "constructor"
    },
    {
      "inputs": [],
      "name": "decimals",
      "outputs": [
        {
          "internalType": "uint8",
          "name": "",
          "type": "uint8"
        }
      ],
      "stateMutability": "pure",
      "type": "function"
    },
    {
      "inputs": [],
      "name": "description",
      "outputs": [
        {
          "internalType": "string",
          "name": "",
          "type": "string"
        }
      ],
      "stateMutability": "pure",
      "type": "function"
    },
    {
      "inputs": [
        {
          "internalType": "uint80",
          "name": "",
          "type": "uint80"
        }
      ],
      "name": "getRoundData",
      "outputs": [
        {
          "internalType": "uint80",
          "name": "",
          "type": "uint80"
        },
        {
          "internalType": "int256",
          "name": "",
          "type": "int256"
        },
        {
          "internalType": "uint256",
          "name": "",
          "type": "uint256"
        },
        {
          "internalType": "uint256",
          "name": "",
          "type": "uint256"
        },
        {
          "internalType": "uint80",
          "name": "",
          "type": "uint80"
        }
      ],
      "stateMutability": "view",
      "type": "function"
    },
    {
      "inputs": [],
      "name": "latestRoundData",
      "outputs": [
        {
          "internalType": "uint80",
          "name": "",
          "type": "uint80"
        },
        {
          "internalType": "int256",
          "name": "",
          "type": "int256"
        },
        {
          "internalType": "uint256",
          "name": "",
          "type": "uint256"
        },
        {
          "internalType": "uint256",
          "name": "",
          "type": "uint256"
        },
        {
          "internalType": "uint80",
          "name": "",
          "type": "uint80"
        }
      ],
      "stateMutability": "view",
      "type": "function"
    },
    {
      "inputs": [
        {
          "internalType": "int256",
          "name": "_answer",
          "type": "int256"
        }
      ],
      "name": "setPrice",
      "outputs": [],
      "stateMutability": "nonpayable",
      "type": "function"
    },
    {
      "inputs": [],
      "name": "version",
      "outputs": [
        {
          "internalType": "uint256",
          "name": "",
          "type": "uint256"
        }
      ],
      "stateMutability": "pure",
      "type": "function"
    }
  ],
  "bytecode": "0x6080604052348015600f57600080fd5b506040516105113803806105118339818101604052810190602f91906071565b80600081905550506099565b600080fd5b6000819050919050565b6051816040565b8114605b57600080fd5b50565b600081519050606b81604a565b92915050565b6000602082840312156084576083603b565b5b6000609084828501605e565b91505092915050565b610469806100a86000396000f3fe608060405234801561001057600080fd5b50600436106100625760003560e01c8063313ce5671461006757806354fd4d50146100855780637284e416146100a35780639a6fc8f5146100c1578063f7a30806146100f5578063feaf968c14610111575b600080fd5b61006f610133565b60405161007c91906101ea565b60405180910390f35b61008d61013c565b60405161009a919061021e565b60405180910390f35b6100ab610141565b6040516100b891906102c9565b60405180910390f35b6100db60048036038101906100d69190610332565b61017e565b6040516100ec959493929190610387565b60405180910390f35b61010f600480360381019061010a9190610406565b6101a2565b005b6101196101ac565b60405161012a959493929190610387565b60405180910390f35b60006012905090565b600090565b60606040518060400160405280601381526020017f6120746573742070726963652066656564657200000000000000000000000000815250905090565b60008060008060008060005460008060009450945094509450945091939590929450565b8060008190555050565b6000806000806000806000546000806000945094509450945094509091929394565b600060ff82169050919050565b6101e4816101ce565b82525050565b60006020820190506101ff60008301846101db565b92915050565b6000819050919050565b61021881610205565b82525050565b6000602082019050610233600083018461020f565b92915050565b600081519050919050565b600082825260208201905092915050565b60005b83811015610273578082015181840152602081019050610258565b60008484015250505050565b6000601f19601f8301169050919050565b600061029b82610239565b6102a58185610244565b93506102b5818560208601610255565b6102be8161027f565b840191505092915050565b600060208201905081810360008301526102e38184610290565b905092915050565b600080fd5b600069ffffffffffffffffffff82169050919050565b61030f816102f0565b811461031a57600080fd5b50565b60008135905061032c81610306565b92915050565b600060208284031215610348576103476102eb565b5b60006103568482850161031d565b91505092915050565b610368816102f0565b82525050565b6000819050919050565b6103818161036e565b82525050565b600060a08201905061039c600083018861035f565b6103a96020830187610378565b6103b6604083018661020f565b6103c3606083018561020f565b6103d0608083018461035f565b9695505050505050565b6103e38161036e565b81146103ee57600080fd5b50565b600081359050610400816103da565b92915050565b60006020828403121561041c5761041b6102eb565b5b600061042a848285016103f1565b9150509291505056fea2646970667358221220bfce1de723a2d81ed773635ab3cedba641ef138da6a160edf814f31f3b51cb9f64736f6c634300081c0033",
  "linkReferences": {},
  "deployedLinkReferences": {}
}